:100000000C942A000C94B5020C94B5020C94B50221
:100010000C94B5020C94B5020C94B5020C94B50284
:100020000C94B5020C94B5020C94B5020C94B50274
:100030000C94B5020C94B5020C94B5020C94B50264
:100040000C94B5020C94B5020C94B5020C94B50254
:100050000C94B50211241FBECFE5D8E0DEBFCDBFA2
:10006000E4E5F0E040E017C0B591A5913591259108
:10007000059107FD0CC095918591EF01F92FE82FAF
:1000800005900D92A217B307D9F7FE0104C01D9287
:10009000A217B307E1F7E435F40731F70E94130222
:0800A0000C94AA02F894FFCFB2
:1000A800CF93DF9300D00F92CDB7DEB789836A83F1
:1000B8004B838981843008F0DBC08B81813009F063
:1000C80068C08981882F90E08130910511F18230D4
:1000D80091051CF4892B41F0CBC08230910571F158
:1000E800039709F440C0C4C08AE390E02AE330E0F3
:1000F800F9012081622F2A81422F50E021E030E06F
:1001080002C0220F331F4A95E2F7262BFC012083F9
:10011800AFC087E390E027E330E0F9012081622F48
:100128002A81422F50E021E030E002C0220F331F25
:100138004A95E2F7262BFC0120839AC084E390E0DD
:1001480024E330E0F9012081622F2A81422F50E018
:1001580021E030E002C0220F331F4A95E2F7262B38
:10016800FC01208385C081E390E021E330E0F901C0
:100178002081622F2A81422F50E021E030E002C026
:10018800220F331F4A95E2F7262BFC01208300003B
:100198006FC08B81882309F06BC08981882F90E01C
:1001A8008130910519F1823091051CF4892B41F0B9
:1001B8005FC08230910581F1039709F443C058C0AC
:1001C8008AE390E02AE330E0F9012081622F2A8156
:1001D800422F50E021E030E002C0220F331F4A9541
:1001E800E2F720952623FC01208342C087E390E0B4
:1001F80027E330E0F9012081622F2A81422F50E065
:1002080021E030E002C0220F331F4A95E2F7209523
:100218002623FC0120832CC084E390E024E330E013
:10022800F9012081622F2A81422F50E021E030E03D
:1002380002C0220F331F4A95E2F720952623FC01BE
:10024800208316C081E390E021E330E0F9012081AA
:10025800622F2A81422F50E021E030E002C0220FB5
:10026800331F4A95E2F720952623FC0120830000DE
:0E02780000000F900F900F90DF91CF9108952E
:10028600CF93DF93CDB7DEB78FE490E02FE430E075
:10029600F90120812E7FFC0120838FE490E02FE47A
:1002A60030E0F90120812260FC0120838EE490E099
:1002B6002EE430E0F90120812860FC0120838EE4E1
:1002C60090E02EE430E0F90120812061FC012083DA
:1002D6008FE490E02FE430E0F90120812F7BFC01D0
:1002E60020838FE490E02FE430E0F901208120683C
:1002F600FC01208386E490E02FE13EE4FC0131839B
:1003060020838EE490E02EE430E0F90120812E7FF8
:10031600FC0120838EE490E02EE430E0F901208198
:100326002260FC0120838EE490E02EE430E0F901A7
:1003360020812B7FFC0120830000DF91CF9108955F
:10034600CF93DF9300D00F92CDB7DEB7198283E348
:1003560090E09B838A8389E290E02A81FC012083D6
:1003660080E490E02A813B81232F3327FC01208300
:100376008AE290E02AE230E0F90120812061FC0166
:1003860020838AE290E02AE230E0F90120812860A9
:10039600FC012083898180688983898184608983BF
:1003A60089818260898380E490E02981FC01208331
:0E03B60000000F900F900F90DF91CF910895EF
:1003C4000F931F93CF93DF930F92CDB7DEB789833B
:1003D4008981853B10F084EB89830AE410E08981EC
:1003E400282F30E040E050E088EE93E0DC010E94EA
:1003F4009F02DC01CB0124EB30E040E050E0BC0183
:10040400CD010E943D02DA01C90188519C4FF801D7
:100414009183808300000F90DF91CF911F910F9102
:02042400089539
:10042600CF93DF930F92CDB7DEB70E94780241E0FB
:1004360065E083E00E94540040E060E083E00E94B3
:10044600540041E061E083E00E9454000E94A30151
:100456000E9443010E945F0289838981813319F4D6
:100466008AE50E94E20189818033A1F780E00E943B
:04047600E201F0CFE0
:10047A00A1E21A2EAA1BBB1BFD010DC0AA1FBB1F9E
:10048A00EE1FFF1FA217B307E407F50720F0A21B10
:10049A00B30BE40BF50B661F771F881F991F1A947D
:1004AA0069F760957095809590959B01AC01BD01A7
:0404BA00CF010895D1
:1004BE00CF93DF93CDB7DEB700008BE290E0FC0167
:1004CE008081881F8827881F882F90E08170992748
:1004DE00892B99F38CE290E0FC018081DF91CF9122
:0204EE0008956F
:1004F000CF93DF93CDB7DEB78AE390E0FC011082A3
:1005000087E390E0FC01108284E390E0FC0110821C
:1005100081E390E0FC0110820000DF91CF9108950B
:10052000A29FB001B39FC001A39F700D811D112434
:0E053000911DB29F700D811D1124911D089523
:10053E000E949002A59F900DB49F900DA49F800DD8
:06054E00911D1124089527
:10055400EC010E94BA020E94B902CE010E94BB02C1
:06056400CE010E94B70267
:04056A000C940000ED
:04056E000E94520095
:020572000895EA
:020574000895E8
:020576000895E6
:00000001FF
