:100000000C9433000C948D1F0C94D9230C94D92399
:100010000C94D9230C94D9230C94D9230C94D92370
:100020000C94D9230C94D9230C94D9230C94D92360
:100030000C94D9230C94D9230C94D9230C94D92350
:100040000C94D9230C94D9230C94D9230C94D92340
:100050000C94D9230060006480006402850047C0CE
:1000600002850286800011241FBECFE5D8E0DEBFE6
:10007000CDBFE4E5F0E040E017C0B591A591359122
:100080002591059107FD0CC095918591EF01F92F00
:10009000E82F05900D92A217B307D9F7FE0104C00F
:1000A0001D92A217B307E1F7E536F40731F70E9476
:0A00B0005D000C948A23F894FFCF42
:1000BA000F931F93CF93DF93CDB7DEB7C850D140CC
:1000CA000FB6F894DEBF0FBECDBF0E94FC220E947D
:1000DA00FA110E940A1F0E94E2220E94E11B0E945A
:1000EA00F31C0E947C1E0E944E1F41E067E083E0E1
:1000FA000E94E51441E065E083E00E94E51441E0D6
:10010A0066E083E00E94E51441E064E080E00E943A
:10011A00E51440E061E080E00E94E51440E060E020
:10012A0080E00E94E51441E064E083E00E94E51467
:10013A0041E063E080E00E94E51441E061E083E091
:10014A000E94E51440E060E083E00E94E514198211
:10015A001A8284E690E00E94712161E080E00E94A8
:10016A0030220E94441D8E8B8E898033B0F08E8996
:10017A008A3398F48AE20E9461178981882F90E075
:10018A009E0127503F4F820F931F2E89FC01208327
:10019A0089818F5F89830C94FA0F8E898D3309F7D1
:1001AA001B821C821D821E821F8232C08B819C810F
:1001BA00AD81BE81880F991FAA1FBB1F9C01AD018B
:1001CA00220F331F441F551F220F331F441F551F71
:1001DA00280F391F4A1F5B1F8F81882F90E0BE01AD
:1001EA0067507F4F860F971FFC018081882F90E010
:1001FA00C097092E000CAA0BBB0B820F931FA41FDA
:10020A00B51F8B839C83AD83BE838F818F5F8F8362
:10021A009F818981981750F28B819C81AD81BE8123
:10022A00843C9348AE40B10511F00C94300A1A820E
:10023A00188619861A861B868AE50E94E32081E3BE
:10024A000E94702281E00E94001861E080E00E9412
:10025A00302281E790E00E94712161E080E00E94F3
:10026A00302280E090E0AAE7B4E48BAB9CABADAB64
:10027A00BEAB8E010D591F4F20E030E04AEF54E427
:10028A006BA97CA98DA99EA90E94D223DC01CB016E
:10029A00F80180839183A283B383CE018D599F4F46
:1002AA0020E030E040E85FE3FC01608171818281F7
:1002BA0093810E94C82388234CF4CE0189599F4F09
:1002CA0021E030E0FC013183208369C0CE018D59E1
:1002DA009F4F20E03FEF4FE757E4FC0160817181B7
:1002EA00828193810E94CD2318160CF046C020E02B
:1002FA0030E040E251E46BA97CA98DA99EA90E9435
:10030A00D223DC01CB018E0109591F4FBC01CD015B
:10031A000E941421DC01CB01F8019183808324C05F
:10032A00CE0187599F4F28EC30E0FC0131832083AE
:10033A00CE0187599F4FFC01808191810197F1F786
:10034A009E0127593F4FF90191838083CE01895934
:10035A009F4F9E0129593F4FF90120813181215038
:10036A003109FC0131832083CE0189599F4FFC0159
:10037A0080819181892BA1F62CC08E0109591F4FCA
:10038A00CE018D599F4FFC016081718182819381D9
:10039A000E941421DC01CB01F80191838083CE01F4
:1003AA0085599F4F9E0129593F4FF901208131817B
:1003BA00FC0131832083CE0185599F4FFC01808146
:1003CA0091810197F1F79E0125593F4FF9019183D8
:1003DA00808381E00E94C21683E890E00E94712126
:1003EA009E012B5A3F4F80E090E0AAE7B4E4F9015E
:1003FA0080839183A283B3838E01075A1F4FCE0154
:10040A008B5A9F4F20E030E04AEF54E4FC016081B0
:10041A007181828193810E94D223DC01CB01F80190
:10042A0080839183A283B383CE01875A9F4F20E0B2
:10043A0030E040E85FE3FC01608171818281938151
:10044A000E94C82388234CF4CE01835A9F4F21E08F
:10045A0030E0FC01318320836DC0CE01875A9F4F63
:10046A0020E03FEF4FE757E4FC0160817181828110
:10047A0093810E94CD2318160CF04AC0CE018B5AE4
:10048A009F4F20E030E040E251E4FC01608171813D
:10049A00828193810E94D223DC01CB018E01035A0F
:1004AA001F4FBC01CD010E941421DC01CB01F801D0
:1004BA009183808324C0CE01815A9F4F28EC30E07B
:1004CA00FC0131832083CE01815A9F4FFC01808138
:1004DA0091810197F1F79E01215A3F4FF9019183CA
:1004EA008083CE01835A9F4F9E01235A3F4FF901C1
:1004FA002081318121503109FC0131832083CE01D1
:10050A00835A9F4FFC0180819181892BA1F62CC0CF
:10051A008E01035A1F4FCE01875A9F4FFC016081FB
:10052A007181828193810E941421DC01CB01F8013F
:10053A0091838083CE018F599F4F9E01235A3F4F4B
:10054A00F90120813181FC0131832083CE018F5949
:10055A009F4FFC01808191810197F1F79E012F59EC
:10056A003F4FF9019183808381E00E94C2160E9465
:10057A00411C0E94751998AF8FAB0E94E41D8B85B0
:10058A008823D9F580916100882F90E08130910508
:10059A0059F08230910571F0892B89F48FEF0E940E
:1005AA002C2381E08A870BC080E80E942C2381E0FB
:1005BA008A8705C080E00E942C231A860000809159
:1005CA006000882F90E08130910559F082309105C2
:1005DA0071F0892B91F441E063E080E00E94F2130C
:1005EA000CC041E063E080E00E94F21306C040E0E4
:1005FA0063E080E00E94F213000060E080E00E9465
:10060A00302282E990E00E9471218FA998ADCC0135
:10061A00A0E0B0E0BC01CD010E943D2086E990E057
:10062A000E9471218885882341F48985882329F4C9
:10063A008CE990E00E94712104C082EA90E00E9455
:10064A00712161E080E00E94302288EA90E00E94F5
:10065A00712164E080E00E940619813029F48BEA56
:10066A0090E00E94712104C08EEA90E00E947121FC
:10067A0082EB90E00E9471218A85813029F486EB11
:10068A0090E00E94712104C08EEA90E00E947121DC
:10069A008AEB90E00E9471218FEF8C871D86C2C081
:1006AA000E94441D8C878C858F3F09F0C0C080E072
:1006BA0090E0A0E2B1E48FA798ABA9ABBAAB8E01E8
:1006CA0003591F4F20E030E04AEF54E46FA578A9A0
:1006DA0089A99AA90E94D223DC01CB01F80180835F
:1006EA009183A283B383CE0183599F4F20E030E0E8
:1006FA0040E85FE3FC0160817181828193810E94FD
:10070A00C82388234CF4CE018F589F4F21E030E054
:10071A00FC013183208369C0CE0183599F4F20E0B9
:10072A003FEF4FE757E4FC01608171818281938139
:10073A000E94CD2318160CF046C020E030E040E2BB
:10074A0051E46FA578A989A99AA90E94D223DC014C
:10075A00CB018E010F581F4FBC01CD010E941421FD
:10076A00DC01CB01F8019183808324C0CE018D582E
:10077A009F4F28EC30E0FC0131832083CE018D5855
:10078A009F4FFC01808191810197F1F79E012D58BD
:10079A003F4FF90191838083CE018F589F4F9E016D
:1007AA002F583F4FF9012081318121503109FC0135
:1007BA0031832083CE018F589F4FFC018081918124
:1007CA00892BA1F62CC08E010F581F4FCE018359D9
:1007DA009F4FFC0160817181828193810E94142163
:1007EA00DC01CB01F80191838083CE018B589F4FA6
:1007FA009E012F583F4FF90120813181FC0131833D
:10080A002083CE018B589F4FFC01808191810197F3
:10081A00F1F79E012B583F4FF901918380838D8513
:10082A008F5F8D878D85823308F43ACF01C000002F
:10083A008C85803309F09DCE81E08E8707C681E0E2
:10084A000E94C21681EC90E00E94712161E080E072
:10085A000E94302281ED90E00E9471218FEF8F87F4
:10086A0003C00E94441D8F878F858F3FD1F38F85E8
:10087A00882F90E08233910509F4F8C183339105FA
:10088A003CF48033910509F4DFC5C19749F0DEC510
:10089A008333910509F4DEC3C49709F4BDC4D6C5F0
:1008AA0081E0888BDEC181E00E94C21683EE90E06F
:1008BA000E94712161E080E00E94302284EF90E082
:1008CA000E9471218FEF898B03C00E94441D898B7E
:1008DA0089898F3FD1F38989882F90E082339105E6
:1008EA0009F4DFC08333910509F4B9C1C19709F04E
:1008FA00B8C10E94E11B8885882369F480E00E94C0
:10090A00E32081E0888781E00E94C2168CEF90E0A4
:10091A000E9471210BC08AE50E94E320188681E0BB
:10092A000E94C2168DE091E00E94712180E090E061
:10093A00AAE7B4E489AF9AAFABAFBCAF8E0109584E
:10094A001F4F20E030E04AEF54E469AD7AAD8BAD39
:10095A009CAD0E94D223DC01CB01F80180839183F4
:10096A00A283B383CE0189589F4F20E030E040E84C
:10097A005FE3FC0160817181828193810E94C823B7
:10098A0088234CF4CE0185589F4F21E030E0FC01CA
:10099A003183208369C0CE0189589F4F20E03FEF01
:1009AA004FE757E4FC0160817181828193810E9443
:1009BA00CD2318160CF046C020E030E040E251E4A6
:1009CA0069AD7AAD8BAD9CAD0E94D223DC01CB011F
:1009DA008E0105581F4FBC01CD010E941421DC0174
:1009EA00CB01F8019183808324C0CE0183589F4FA5
:1009FA0028EC30E0FC0131832083CE0183589F4FDD
:100A0A00FC01808191810197F1F79E0123583F4FA4
:100A1A00F90191838083CE0185589F4F9E01255805
:100A2A003F4FF9012081318121503109FC01318385
:100A3A002083CE0185589F4FFC0180819181892BAB
:100A4A00A1F62CC08E0105581F4FCE0189589F4F21
:100A5A00FC0160817181828193810E941421DC01F1
:100A6A00CB01F80191838083CE0181589F4F9E016B
:100A7A0025583F4FF90120813181FC0131832083C0
:100A8A00CE0181589F4FFC01808191810197F1F736
:100A9A009E0121583F4FF901918380830E94411C96
:100AAA00E0C08985882369F480E30E94702281E08E
:100ABA00898781E00E94C2168EE191E00E9471212D
:100ACA000BC081E30E947022198681E00E94C2163F
:100ADA008FE291E00E94712180E090E0AAE7B4E4FD
:100AEA009E01235C3F4FF90180839183A283B383E4
:100AFA008E010F571F4F20E030E04AEF54E4CE0139
:100B0A00CD96FC0160817181828193810E94D223FA
:100B1A00DC01CB01F80180839183A283B383CE01E8
:100B2A008F579F4F20E030E040E85FE3FC0160818F
:100B3A007181828193810E94C82388234CF4CE015B
:100B4A008B579F4F21E030E0FC01318320836CC03A
:100B5A00CE018F579F4F20E03FEF4FE757E4FC014C
:100B6A0060817181828193810E94CD2318160CF0D5
:100B7A0049C020E030E040E251E4CE01CD96FC01CC
:100B8A0060817181828193810E94D223DC01CB0131
:100B9A008E010B571F4FBC01CD010E941421DC01AD
:100BAA00CB01F8019183808324C0CE0189579F4FDE
:100BBA0028EC30E0FC0131832083CE0189579F4F16
:100BCA00FC01808191810197F1F79E0129573F4FDE
:100BDA00F90191838083CE018B579F4F9E012B573A
:100BEA003F4FF9012081318121503109FC013183C4
:100BFA002083CE018B579F4FFC0180819181892BE5
:100C0A00A1F62CC08E010B571F4FCE018F579F4F55
:100C1A00FC0160817181828193810E941421DC012F
:100C2A00CB01F80191838083CE0187579F4F9E01A4
:100C3A002B573F4FF90120813181FC0131832083F9
:100C4A00CE0187579F4FFC01808191810197F1F76F
:100C5A009E0127573F4FF9019183808302C0188A6A
:100C6A0000008889882309F01ECEF0C381E08B87B3
:100C7A0081E08A8BEAC181E00E94C21680E491E099
:100C8A000E94712161E080E00E9430228AE491E0B2
:100C9A000E9471218FEF8B8B03C00E94441D8B8BA6
:100CAA008B898F3FD1F38B89882F90E0823391050E
:100CBA0009F4E5C08733910509F4C5C1C19709F064
:100CCA00C4C180918502813059F480E00E940018E5
:100CDA0081E00E94C2168AE591E00E9471210AC051
:100CEA0081E00E94001881E00E94C2168BE691E022
:100CFA000E9471219E012F5B3F4F80E090E0AAE79E
:100D0A00B4E4F90180839183A283B3838E010557EA
:100D1A001F4FCE018F5B9F4F20E030E04AEF54E433
:100D2A00FC0160817181828193810E94D223DC015E
:100D3A00CB01F80180839183A283B383CE018557C7
:100D4A009F4F20E030E040E85FE3FC016081718161
:100D5A00828193810E94C82388234CF4CE01815753
:100D6A009F4F21E030E0FC01318320836DC0CE012A
:100D7A0085579F4F20E03FEF4FE757E4FC01608122
:100D8A007181828193810E94CD2318160CF04AC08A
:100D9A00CE018F5B9F4F20E030E040E251E4FC013E
:100DAA0060817181828193810E94D223DC01CB010F
:100DBA008E0101571F4FBC01CD010E941421DC0195
:100DCA00CB01F8019183808324C0CE018F569F4FB7
:100DDA0028EC30E0FC0131832083CE018F569F4FEF
:100DEA00FC01808191810197F1F79E012F563F4FB7
:100DFA00F90191838083CE0181579F4F9E0121572C
:100E0A003F4FF9012081318121503109FC013183A1
:100E1A002083CE0181579F4FFC0180819181892BCC
:100E2A00A1F62CC08E0101571F4FCE0185579F4F47
:100E3A00FC0160817181828193810E941421DC010D
:100E4A00CB01F80191838083CE018D569F4F9E017D
:100E5A0021573F4FF90120813181FC0131832083E1
:100E6A00CE018D569F4FFC01808191810197F1F748
:100E7A009E012D563F4FF90191838083E6C063E0BE
:100E8A0080E00E940619813069F440E063E080E066
:100E9A000E94F21381E00E94C2168CE791E00E9440
:100EAA0071210CC041E063E080E00E94F21381E00E
:100EBA000E94C2168DE891E00E9471219E012B5B6F
:100ECA003F4F80E090E0AAE7B4E4F9018083918380
:100EDA00A283B3838E010B561F4FCE018B5B9F4FAC
:100EEA0020E030E04AEF54E4FC01608171818281A4
:100EFA0093810E94D223DC01CB01F8018083918384
:100F0A00A283B383CE018B569F4F20E030E040E8A6
:100F1A005FE3FC0160817181828193810E94C82311
:100F2A0088234CF4CE0187569F4F21E030E0FC0124
:100F3A00318320836DC0CE018B569F4F20E03FEF57
:100F4A004FE757E4FC0160817181828193810E949D
:100F5A00CD2318160CF04AC0CE018B5B9F4F20E0C0
:100F6A0030E040E251E4FC01608171818281938129
:100F7A000E94D223DC01CB018E0107561F4FBC0110
:100F8A00CD010E941421DC01CB01F80191838083F9
:100F9A0024C0CE0185569F4F28EC30E0FC013183F6
:100FAA002083CE0185569F4FFC0180819181019754
:100FBA00F1F79E0125563F4FF90191838083CE01B7
:100FCA0087569F4F9E0127563F4FF9012081318155
:100FDA0021503109FC0131832083CE0187569F4F6E
:100FEA00FC0180819181892BA1F62CC08E010756C4
:100FFA001F4FCE018B569F4FFC0160817181828108
:10100A0093810E941421DC01CB01F8019183808332
:10101A00CE0183569F4F9E0127563F4FF9012081EB
:10102A003181FC0131832083CE0183569F4FFC011D
:10103A00808191810197F1F79E0123563F4FF90173
:10104A009183808302C01A8A00008A89882309F062
:10105A0012CEFCC181E08B878A85813061F480E001
:10106A000E942C231A8681E00E94C2168EE991E022
:10107A000E9471210CC08FEF0E942C2381E08A8785
:10108A0081E00E94C2168FEA91E00E9471219E01BE
:10109A00275B3F4F80E090E0AAE7B4E4F901808340
:1010AA009183A283B3838E0101561F4FCE01875BC2
:1010BA009F4F20E030E04AEF54E4FC0160817181E7
:1010CA00828193810E94D223DC01CB01F8018083C3
:1010DA009183A283B383CE0181569F4F20E030E0F3
:1010EA0040E85FE3FC0160817181828193810E9403
:1010FA00C82388234CF4CE018D559F4F21E030E060
:10110A00FC01318320836DC0CE0181569F4F20E0C0
:10111A003FEF4FE757E4FC0160817181828193813F
:10112A000E94CD2318160CF04AC0CE01875B9F4F50
:10113A0020E030E040E251E4FC016081718182816B
:10114A0093810E94D223DC01CB018E010D551F4FE2
:10115A00BC01CD010E941421DC01CB01F80191836D
:10116A00808324C0CE018B559F4F28EC30E0FC01D0
:10117A0031832083CE018B559F4FFC018081918161
:10118A000197F1F79E012B553F4FF9019183808317
:10119A00CE018D559F4F9E012D553F4FF90120815C
:1011AA00318121503109FC0131832083CE018D55D3
:1011BA009F4FFC0180819181892BA1F62CC08E0161
:1011CA000D551F4FCE0181569F4FFC0160817181E1
:1011DA00828193810E941421DC01CB01F801918361
:1011EA008083CE0189559F4F9E012D553F4FF901AE
:1011FA0020813181FC0131832083CE0189559F4FA3
:10120A00FC01808191810197F1F79E0129553F4F99
:10121A00F901918380831AC11B8681E00E94C2165C
:10122A0080EC91E00E9471219E01235B3F4F80E098
:10123A0090E0AAE7B4E4F90180839183A283B3839F
:10124A008E0107551F4FCE01835B9F4F20E030E090
:10125A004AEF54E4FC0160817181828193810E948A
:10126A00D223DC01CB01F80180839183A283B3836B
:10127A00CE0187559F4F20E030E040E85FE3FC0154
:10128A0060817181828193810E94C82388234CF4F2
:10129A00CE0183559F4F21E030E0FC01318320834A
:1012AA006DC0CE0187559F4F20E03FEF4FE757E4CF
:1012BA00FC0160817181828193810E94CD2318167D
:1012CA000CF04AC0CE01835B9F4F20E030E040E241
:1012DA0051E4FC0160817181828193810E94D22351
:1012EA00DC01CB018E0103551F4FBC01CD010E94C9
:1012FA001421DC01CB01F8019183808324C0CE0143
:10130A0081559F4F28EC30E0FC0131832083CE01C8
:10131A0081559F4FFC01808191810197F1F79E01D0
:10132A0021553F4FF90191838083CE0183559F4F09
:10133A009E0123553F4FF901208131812150310906
:10134A00FC0131832083CE0183559F4FFC018081AC
:10135A009181892BA1F62CC08E0103551F4FCE0116
:10136A0087559F4FFC0160817181828193810E9420
:10137A001421DC01CB01F80191838083CE018F54C3
:10138A009F4F9E0123553F4FF90120813181FC0176
:10139A0031832083CE018F549F4FFC01808191813C
:1013AA000197F1F79E012F543F4FF90191838083F2
:1013BA0081E00E94C21682E990E00E9471218FA901
:1013CA0098ADCC01A0E0B0E0BC01CD010E943D2067
:1013DA0086E990E00E9471218885882341F48985F5
:1013EA00882329F48CE990E00E94712104C082EAE2
:1013FA0090E00E94712161E080E00E94302288EA38
:10140A0090E00E94712164E080E00E940619813018
:10141A0029F48BEA90E00E94712104C08EEA90E0E0
:10142A000E94712182EB90E00E9471218A858130AD
:10143A0029F486EB90E00E94712104C08EEA90E0C4
:10144A000E9471211E8602C01E8600008E85882396
:10145A0009F0F5C98EC819828A818F5F8A8361E093
:10146A0080E00E94302281ED91E00E94712141E0EA
:10147A0067E083E00E94F21380E090E0A6E9B3E41B
:10148A008B8F9C8FAD8FBE8F8E010F521F4F20E026
:10149A0030E04AEF54E46B8D7C8D8D8D9E8D0E94D9
:1014AA00D223DC01CB01F80180839183A283B38329
:1014BA00CE018F529F4F20E030E040E85FE3FC010D
:1014CA0060817181828193810E94C82388234CF4B0
:1014DA00CE018B529F4F21E030E0FC013183208303
:1014EA0069C0CE018F529F4F20E03FEF4FE757E48C
:1014FA00FC0160817181828193810E94CD2318163B
:10150A000CF046C020E030E040E251E46B8D7C8D67
:10151A008D8D9E8D0E94D223DC01CB018E010B5250
:10152A001F4FBC01CD010E941421DC01CB01F8013F
:10153A009183808324C0CE0189529F4F28EC30E0EA
:10154A00FC0131832083CE0189529F4FFC018081A7
:10155A0091810197F1F79E0129523F4FF901918339
:10156A008083CE018B529F4F9E012B523F4FF90130
:10157A002081318121503109FC0131832083CE0140
:10158A008B529F4FFC0180819181892BA1F62CC03F
:10159A008E010B521F4FCE018F529F4FFC0160816B
:1015AA007181828193810E941421DC01CB01F801AF
:1015BA0091838083CE0187529F4F9E012B523F4FCA
:1015CA00F90120813181FC0131832083CE018752C8
:1015DA009F4FFC01808191810197F1F79E0127526B
:1015EA003F4FF9019183808361E080E00E943022BD
:1015FA0083EE91E00E94712180E090E0A6E9B3E4D5
:10160A008F8F98A3A9A3BAA38E0109531F4F20E075
:10161A0030E04AEF54E46F8D78A189A19AA10E9423
:10162A00D223DC01CB01F80180839183A283B383A7
:10163A00CE0189539F4F20E030E040E85FE3FC0190
:10164A0060817181828193810E94C82388234CF42E
:10165A00CE0185539F4F21E030E0FC013183208386
:10166A0069C0CE0189539F4F20E03FEF4FE757E40F
:10167A00FC0160817181828193810E94CD231816B9
:10168A000CF046C020E030E040E251E46F8D78A1D2
:10169A0089A19AA10E94D223DC01CB018E010553B4
:1016AA001F4FBC01CD010E941421DC01CB01F801BE
:1016BA009183808324C0CE0183539F4F28EC30E06E
:1016CA00FC0131832083CE0183539F4FFC0180812B
:1016DA0091810197F1F79E0123533F4FF9019183BD
:1016EA008083CE0185539F4F9E0125533F4FF901B9
:1016FA002081318121503109FC0131832083CE01BF
:10170A0085539F4FFC0180819181892BA1F62CC0C2
:10171A008E0105531F4FCE0189539F4FFC016081F3
:10172A007181828193810E941421DC01CB01F8012D
:10173A0091838083CE0181539F4F9E0125533F4F52
:10174A00F90120813181FC0131832083CE0181534B
:10175A009F4FFC01808191810197F1F79E012153EE
:10176A003F4FF9019183808361E080E00E9430223B
:10177A0081ED91E00E94712140E067E083E00E94E0
:10178A00F21380E090E0A6E9B3E48BA39CA3ADA397
:10179A00BEA38E0103541F4F20E030E04AEF54E409
:1017AA006BA17CA18DA19EA10E94D223DC01CB0159
:1017BA00F80180839183A283B383CE0183549F4F20
:1017CA0020E030E040E85FE3FC01608171818281C2
:1017DA0093810E94C82388234CF4CE018F539F4FD4
:1017EA0021E030E0FC013183208369C0CE018354BB
:1017FA009F4F20E03FEF4FE757E4FC016081718182
:10180A00828193810E94CD2318160CF046C020E0F5
:10181A0030E040E251E46BA17CA18DA19EA10E941F
:10182A00D223DC01CB018E010F531F4FBC01CD0126
:10183A000E941421DC01CB01F8019183808324C02A
:10184A00CE018D539F4F28EC30E0FC013183208379
:10185A00CE018D539F4FFC01808191810197F1F751
:10186A009E012D533F4FF90191838083CE018F53FF
:10187A009F4F9E012F533F4FF90120813181215003
:10188A003109FC0131832083CE018F539F4FFC0124
:10189A0080819181892BA1F62CC08E010F531F4F95
:1018AA00CE0183549F4FFC016081718182819381B3
:1018BA000E941421DC01CB01F80191838083CE01BF
:1018CA008B539F4F9E012F533F4FF9012081318146
:1018DA00FC0131832083CE018B539F4FFC01808111
:1018EA0091810197F1F79E012B533F4FF9019183A3
:1018FA00808361E080E00E94302283EE91E00E94C2
:10190A0071219E012F5A3F4F80E090E0A6E9B3E48F
:10191A00F90180839183A283B3838E010D541F4FF3
:10192A00CE018F5A9F4F20E030E04AEF54E4FC0189
:10193A0060817181828193810E94D223DC01CB0173
:10194A00F80180839183A283B383CE018D549F4F84
:10195A0020E030E040E85FE3FC0160817181828130
:10196A0093810E94C82388234CF4CE0189549F4F47
:10197A0021E030E0FC01318320836DC0CE018D541B
:10198A009F4F20E03FEF4FE757E4FC0160817181F0
:10199A00828193810E94CD2318160CF04AC0CE0191
:1019AA008F5A9F4F20E030E040E251E4FC01608111
:1019BA007181828193810E94D223DC01CB018E0145
:1019CA0009541F4FBC01CD010E941421DC01CB0137
:1019DA00F8019183808324C0CE0187549F4F28EC5D
:1019EA0030E0FC0131832083CE0187549F4FFC01F4
:1019FA00808191810197F1F79E0127543F4FF901A8
:101A0A0091838083CE0189549F4F9E0129543F4F71
:101A1A00F9012081318121503109FC013183208370
:101A2A00CE0189549F4FFC0180819181892BA1F6B7
:101A3A002CC08E0109541F4FCE018D549F4FFC01BB
:101A4A0060817181828193810E941421DC01CB0122
:101A5A00F80191838083CE0185549F4F9E012954BA
:101A6A003F4FF90120813181FC0131832083CE016E
:101A7A0085549F4FFC01808191810197F1F79E0166
:101A8A0025543F4FF9019183808381E00E94C21659
:101A9A0084E690E00E94712161E080E00E94302299
:101AAA008A81833009F012C181E00E94C21682EF56
:101ABA0091E00E94712184E190E09D8B8C8B36C06D
:101ACA008C899D890A97B0F461E080E00E943022F7
:101ADA0083E092E00E9471218C899D89CC01A0E06B
:101AEA00B0E0BC01CD010E943D208EE092E00E9450
:101AFA00712115C061E080E00E94302284E192E009
:101B0A000E9471218C899D89CC01A0E0B0E0BC01C2
:101B1A00CD010E943D208EE092E00E9471210E9438
:101B2A00951D8C899D8901979D8B8C8B8C899D89AC
:101B3A00892B31F681E00E94C2168EE192E00E9462
:101B4A00712180E090E0AAEFB4E48F8B988FA98F7F
:101B5A00BA8F8E0105521F4F20E030E04AEF54E45D
:101B6A006F89788D898D9A8D0E94D223DC01CB01F1
:101B7A00F80180839183A283B383CE0185529F4F5C
:101B8A0020E030E040E85FE3FC01608171818281FE
:101B9A0093810E94C82388234CF4CE0181529F4F1F
:101BAA0021E030E0FC013183208369C0CE018552F7
:101BBA009F4F20E03FEF4FE757E4FC0160817181BE
:101BCA00828193810E94CD2318160CF046C020E032
:101BDA0030E040E251E46F89788D898D9A8D0E94B8
:101BEA00D223DC01CB018E0101521F4FBC01CD0172
:101BFA000E941421DC01CB01F8019183808324C067
:101C0A00CE018F519F4F28EC30E0FC0131832083B5
:101C1A00CE018F519F4FFC01808191810197F1F78D
:101C2A009E012F513F4FF90191838083CE0181524A
:101C3A009F4F9E0121523F4FF9012081318121504E
:101C4A003109FC0131832083CE0181529F4FFC016F
:101C5A0080819181892BA1F62CC08E0101521F4FE0
:101C6A00CE0185529F4FFC016081718182819381EF
:101C7A000E941421DC01CB01F80191838083CE01FB
:101C8A008D519F4F9E0121523F4FF9012081318191
:101C9A00FC0131832083CE018D519F4FFC0180814D
:101CAA0091810197F1F79E012D513F4FF9019183DF
:101CBA00808381E00E94C21684E690E00E9471212E
:101CCA0061E080E00E9430220C94B6008A81843060
:101CDA0010F40C94B60081E00E94C2168FE292E0E2
:101CEA000E94712161E080E00E9430228DE392E03F
:101CFA000E94712141E067E083E00E94F21380E0D4
:101D0A0090E0A8E4B3E48BA79CA7ADA7BEA78E0179
:101D1A0001511F4F20E030E04AEF54E46BA57CA547
:101D2A008DA59EA50E94D223DC01CB01F8018083F8
:101D3A009183A283B383CE0181519F4F20E030E08B
:101D4A0040E85FE3FC0160817181828193810E9496
:101D5A00C82388234CF4CE018D509F4F21E030E0F8
:101D6A00FC013183208369C0CE0181519F4F20E05D
:101D7A003FEF4FE757E4FC016081718182819381D3
:101D8A000E94CD2318160CF046C020E030E040E255
:101D9A0051E46BA57CA58DA59EA50E94D223DC01EA
:101DAA00CB018E010D501F4FBC01CD010E941421A1
:101DBA00DC01CB01F8019183808324C0CE018B50D2
:101DCA009F4F28EC30E0FC0131832083CE018B50F9
:101DDA009F4FFC01808191810197F1F79E012B5061
:101DEA003F4FF90191838083CE018D509F4F9E0111
:101DFA002D503F4FF9012081318121503109FC01D9
:101E0A0031832083CE018D509F4FFC0180819181C7
:101E1A00892BA1F62CC08E010D501F4FCE01815186
:101E2A009F4FFC0160817181828193810E941421FC
:101E3A00DC01CB01F80191838083CE0189509F4F49
:101E4A009E012D503F4FF90120813181FC013183E0
:101E5A002083CE0189509F4FFC0180819181019797
:101E6A00F1F79E0129503F4FF9019183808340E0A9
:101E7A0067E083E00E94F21380E090E0A8E4B3E414
:101E8A008FA398A7A9A7BAA78E010B511F4F20E0CD
:101E9A0030E04AEF54E46FA178A589A59AA50E947B
:101EAA00D223DC01CB01F80180839183A283B3831F
:101EBA00CE018B519F4F20E030E040E85FE3FC0108
:101ECA0060817181828193810E94C82388234CF4A6
:101EDA00CE0187519F4F21E030E0FC0131832083FE
:101EEA0069C0CE018B519F4F20E03FEF4FE757E487
:101EFA00FC0160817181828193810E94CD23181631
:101F0A000CF046C020E030E040E251E46FA178A531
:101F1A0089A59AA50E94D223DC01CB018E01075123
:101F2A001F4FBC01CD010E941421DC01CB01F80135
:101F3A009183808324C0CE0185519F4F28EC30E0E5
:101F4A00FC0131832083CE0185519F4FFC018081A2
:101F5A0091810197F1F79E0125513F4FF901918334
:101F6A008083CE0187519F4F9E0127513F4FF90130
:101F7A002081318121503109FC0131832083CE0136
:101F8A0087519F4FFC0180819181892BA1F62CC03A
:101F9A008E0107511F4FCE018B519F4FFC0160816B
:101FAA007181828193810E941421DC01CB01F801A5
:101FBA0091838083CE0183519F4F9E0127513F4FCA
:101FCA00F90120813181FC0131832083CE018351C3
:101FDA009F4FFC01808191810197F1F79E01235166
:0E1FEA003F4FF9019183808385CE0C94B600A1
:101FF800AEE0B0E0E2E0F0E10C94AE224C016B01FF
:102008001A8219828FEF9FEF9C838B831E821D8219
:1020180058874F833A872987A12CB12CD6016D9018
:102028007C90F301EA0DFB1D808181110FC0D60160
:10203800ED93FC938081853209F0D3C13F01BFEF56
:102048006B1A7B0AF6017182608219C0853279F3B6
:10205800B401082E000C990B0E94301E4FEFA41AF1
:10206800B40ADCCF8C32ACF08D32F9F489819A81D4
:1020780081609A8389833196D601ED93FC93D601CA
:10208800ED91FC9180818B3269F789819A81846016
:10209800F0CF803221F489819A818860EACF833237
:1020A80051F489819A818061E4CF803321F4898158
:1020B8009A818260DECFB701C6010E9443219E83C8
:1020C8008D8397FF0BC029813A81B1E02B273A8392
:1020D80029839195819591099E838D8389819A8120
:1020E80080FF03C08D7F9A838983D601ED91FC918F
:1020F800119780818E3249F43196ED93FC93B701A4
:10210800C6010E9443219C838B83C6010E945022F2
:10211800582ED601ED91FC918081082E000C990B68
:102128000E949E23893609F443C084F4833609F457
:1021380002C134F4853209F427C18136E1F030C197
:102148008436B1F188360CF4D9C02AC1803709F435
:102158009AC03CF48E3609F4BCC08F3609F461C0CD
:102168001FC1853709F440C0883709F476C0833722
:1021780009F016C1F3C0652D70E0A701CE010B96DA
:102188000E940000892B09F426C1D601ED91FC912B
:102198001197CF0101968D939C932081AE01455FE5
:1021A8005F4FBE016F5F7F4FC4010E94000010C1E6
:1021B800652D70E0970141E050E0CE010B960E943A
:1021C800B41A892B09F407C1F6018081918101961F
:1021D80091838083AE01455F5F4FBE016F5F7F4F84
:1021E800C4010E949418F4C0652D70E0970140E086
:1021F80050E0CE010B960E94B41A892B09F4EBC06B
:10220800D6018D919C91119701968D939C93AE0167
:10221800455F5F4FBE016F5F7F4FC4010E94C31EC1
:10222800D7C0652D70E0970140E050E0CE010B96D5
:102238000E94B41A892B09F4CEC0F60180819181DD
:10224800019691838083AE01455F5F4FBE016F5F4A
:102258007F4FC4010E949A1CBBC0652D70E0970196
:1022680040E050E0CE010B960E94B41A892B09F485
:10227800B2C0D601ED91FC911197CF0101968D93D3
:102288009C9320811CC0970140E050E060EF70E013
:10229800CE010B960E94B41A892B09F49CC0F60152
:1022A800808191810196918380838B859C85892B80
:1022B80029F420E030E04CE752E084C028E7AE0182
:1022C800455F5F4FBE016F5F7F4FC4010E94D41509
:1022D8007FC0A501400F511F652D70E09701CE0109
:1022E8000B960E940000892B09F475C0D6018D91C8
:1022F8009C91119701968D939C9373C0652D70E006
:10230800A701CE010B960E940000892B09F463C037
:10231800D601ED91FC911197CF0101968D939C9375
:102328002081AE01455F5F4FBE016F5F7F4FC401E3
:102338000E9400004DC0B0E85B124DC0F6018081DC
:102348009181019691838083D701ED91FC9111973A
:10235800CF0102968D939C93808120C0B0E85B12D8
:102368003AC0F60180819181019691838083D701DB
:10237800ED91FC911197CF0102968D939C9340812A
:10238800518120E030E01EC0B0E85B1224C0F601A5
:10239800208131812F5F3F4F318320838B870DC090
:1023A80085E28B87D6016D927C921A8219821E82F1
:1023B8001D828FEF9FEF9C838B8321E030E0AE017D
:1023C800455F5F4FBE016F5F7F4FC4010E949E2132
:1023D8008A0D9B1D07C0F60180819181019691832A
:0C23E8008083C5012E96EFE00C94CA2201
:1023F400CF93DF93CDB7DEB7E8970FB6F894DEBF7F
:102404000FBECDBF61E082E00E944C1A41E065E05E
:1024140080E00E94E51441E066E080E00E94E5145B
:1024240041E067E080E00E94E51480E090E0A0E2F3
:10243400B2E489839A83AB83BC8320E030E04AE72B
:1024440053E469817A818B819C810E94D223DC01CF
:10245400CB018FA798ABA9ABBAAB20E030E040E842
:102464005FE36FA578A989A99AA90E94C823882344
:102474002CF481E090E09CAB8BAB3FC020E03FEFBD
:102484004FE757E46FA578A989A99AA90E94CD239B
:1024940018164CF520E030E040E251E469817A817D
:1024A4008B819C810E94D223DC01CB01BC01CD0134
:1024B4000E941421DC01CB019CAB8BAB0FC089E1E2
:1024C40090E09EAB8DAB8DA99EA90197F1F79EABD1
:1024D4008DAB8BA99CA901979CAB8BAB8BA99CA9B9
:1024E400892B69F714C06FA578A989A99AA90E94B4
:1024F4001421DC01CB019CAB8BAB8BA99CA998AFBD
:102504008FAB8FA998AD0197F1F798AF8FAB88E3A4
:102514000E94C21680E090E0A0E8BFE38D839E8312
:10252400AF83B88720E030E04AE753E46D817E81D1
:102534008F8198850E94D223DC01CB018DA39EA3B9
:10254400AFA3B8A720E030E040E85FE36DA17EA12F
:102554008FA198A50E94C82388232CF481E090E0E1
:102564009AA789A73FC020E03FEF4FE757E46DA14A
:102574007EA18FA198A50E94CD2318164CF520E0CA
:1025840030E040E251E46D817E818F8198850E9424
:10259400D223DC01CB01BC01CD010E941421DC015A
:1025A400CB019AA789A70FC089E190E09CA78BA7CC
:1025B4008BA59CA50197F1F79CA78BA789A59AA544
:1025C40001979AA789A789A59AA5892B69F714C0A9
:1025D4006DA17EA18FA198A50E941421DC01CB01DD
:1025E4009AA789A789A59AA59EA78DA78DA59EA51B
:1025F4000197F1F79EA78DA78CE00E94C21680E098
:1026040090E0A0E8BFE389879A87AB87BC8720E086
:1026140030E04AE753E469857A858B859C850E947E
:10262400D223DC01CB018B8F9C8FAD8FBE8F20E03A
:1026340030E040E85FE36B8D7C8D8D8D9E8D0E9434
:10264400C82388232CF481E090E098A38F8F3FC0A7
:1026540020E03FEF4FE757E46B8D7C8D8D8D9E8D91
:102664000E94CD2318164CF520E030E040E251E4FE
:1026740069857A858B859C850E94D223DC01CB01F8
:10268400BC01CD010E941421DC01CB0198A38F8FE2
:102694000FC089E190E09AA389A389A19AA1019727
:1026A400F1F79AA389A38F8D98A1019798A38F8F8F
:1026B4008F8D98A1892B69F714C06B8D7C8D8D8DBE
:1026C4009E8D0E941421DC01CB0198A38F8F8F8DE6
:1026D40098A19CA38BA38BA19CA10197F1F79CA328
:1026E4008BA381E00E94C21680E090E0A0E0B0E4F9
:1026F4008D879E87AF87B88B20E030E04AE753E4AC
:102704006D857E858F8598890E94D223DC01CB015B
:10271400898B9A8BAB8BBC8B20E030E040E85FE385
:1027240069897A898B899C890E94C82388232CF41F
:1027340081E090E09E8B8D8B3FC020E03FEF4FE720
:1027440057E469897A898B899C890E94CD2318165C
:102754004CF520E030E040E251E46D857E858F85C4
:1027640098890E94D223DC01CB01BC01CD010E94D7
:102774001421DC01CB019E8B8D8B0FC089E190E08D
:10278400988F8F8B8F89988D0197F1F7988F8F8B06
:102794008D899E8901979E8B8D8B8D899E89892B2E
:1027A40069F714C069897A898B899C890E941421EC
:1027B400DC01CB019E8B8D8B8D899E899A8F898FAD
:1027C400898D9A8D0197F1F79A8F898F0000E89689
:1027D4000FB6F894DEBF0FBECDBFDF91CF91089541
:1027E400CF93DF9300D00F92CDB7DEB789836A838E
:1027F4004B838981843008F0DFC08A81883008F0F7
:10280400DBC08B81813009F068C08981882F90E01A
:102814008130910511F1823091051CF4892B41F02E
:10282400CBC08230910571F1039709F440C0C4C054
:102834008BE390E02BE330E0F9012081622F2A81C1
:10284400422F50E021E030E002C0220F331F4A95AE
:10285400E2F7262BFC012083AFC088E390E028E355
:1028640030E0F9012081622F2A81422F50E021E0DB
:1028740030E002C0220F331F4A95E2F7262BFC01F9
:1028840020839AC085E390E025E330E0F9012081BC
:10289400622F2A81422F50E021E030E002C0220F53
:1028A400331F4A95E2F7262BFC01208385C082E37F
:1028B40090E022E330E0F9012081622F2A81422F47
:1028C40050E021E030E002C0220F331F4A95E2F7C6
:1028D400262BFC01208300006FC08B81882309F024
:1028E4006BC08981882F90E08130910519F1823085
:1028F40091051CF4892B41F05FC08230910581F170
:10290400039709F443C058C08BE390E02BE330E015
:10291400F9012081622F2A81422F50E021E030E02A
:1029240002C0220F331F4A95E2F720952623FC01AB
:10293400208342C088E390E028E330E0F90120815D
:10294400622F2A81422F50E021E030E002C0220FA2
:10295400331F4A95E2F720952623FC0120832CC0DF
:1029640085E390E025E330E0F9012081622F2A819C
:10297400422F50E021E030E002C0220F331F4A957D
:10298400E2F720952623FC01208316C082E390E021
:1029940022E330E0F9012081622F2A81422F50E0A6
:1029A40021E030E002C0220F331F4A95E2F7209560
:1029B4002623FC012083000000000F900F900F904D
:0629C400DF91CF910895A0
:1029CA00CF93DF9300D00F92CDB7DEB789836A83A6
:1029DA004B838981843008F0DBC08B81813009F018
:1029EA0068C08981882F90E08130910511F1823089
:1029FA0091051CF4892B41F0CBC08230910571F10D
:102A0A00039709F440C0C4C08AE390E02AE330E0A7
:102A1A00F9012081622F2A81422F50E021E030E023
:102A2A0002C0220F331F4A95E2F7262BFC012083AE
:102A3A00AFC087E390E027E330E0F9012081622FFD
:102A4A002A81422F50E021E030E002C0220F331FDA
:102A5A004A95E2F7262BFC0120839AC084E390E092
:102A6A0024E330E0F9012081622F2A81422F50E0CD
:102A7A0021E030E002C0220F331F4A95E2F7262BED
:102A8A00FC01208385C081E390E021E330E0F90175
:102A9A002081622F2A81422F50E021E030E002C0DB
:102AAA00220F331F4A95E2F7262BFC0120830000F0
:102ABA006FC08B81882309F06BC08981882F90E0D1
:102ACA008130910519F1823091051CF4892B41F06E
:102ADA005FC08230910581F1039709F443C058C061
:102AEA008AE390E02AE330E0F9012081622F2A810B
:102AFA00422F50E021E030E002C0220F331F4A95F6
:102B0A00E2F720952623FC01208342C087E390E068
:102B1A0027E330E0F9012081622F2A81422F50E019
:102B2A0021E030E002C0220F331F4A95E2F72095D8
:102B3A002623FC0120832CC084E390E024E330E0C8
:102B4A00F9012081622F2A81422F50E021E030E0F2
:102B5A0002C0220F331F4A95E2F720952623FC0173
:102B6A00208316C081E390E021E330E0F90120815F
:102B7A00622F2A81422F50E021E030E002C0220F6A
:102B8A00331F4A95E2F720952623FC012083000093
:0E2B9A0000000F900F900F90DF91CF910895E3
:102BA800AFE0B0E0EAEDF5E10C94AB221C016B015B
:102BB8005A8349832B83FB0182819381848095808A
:102BC80000811181A680B78097FD02C00D7F02C0E9
:102BD80081E090E0E981FA814080518062807380D1
:102BE8009801207133273D832C83740104FF08C0AA
:102BF800411451046104710419F032E0E31AF10838
:102C0800F801E870FF27FF83EE8303FF03C0F1E0BC
:102C1800EF1AF108F6010084F185E02D3197FF875E
:102C2800EE87EA0DFB1D10829C012E193F0939879A
:102C38002887C801827099279B878A87EB818E2F06
:102C4800EE0F990B9C01215431093D872C872E8565
:102C58003F852230310530F48C819D81892B09F024
:102C680042C05CC0411451046104710461F18E8555
:102C78009F8501979F878E87C2018F7099278A3019
:102C8800910514F4C09602C0895A9F4FEC85FD85C2
:102C98007A9748F49C012062215631092A3131057E
:102CA80010F40E949523EE85FF85EA0DFB1D8083B5
:102CB800F1E0EF1AF10884E076946794579447940A
:102CC8008A95D1F7C4CF888599858E0D9F1D1816D2
:102CD80019066CF21E141F040CF0BECFEA85FB85A2
:102CE800EF2B29F6B9CFE981FA8180819181A28100
:102CF800B381892B8A2B8B2B89F0EE85FF85EA0D12
:102D0800FB1D31972B8120838E859F8502979F8796
:102D18008E87FC01EA0DFB1D80E38083EE81FF8135
:102D2800EF2B59F02E853F85215031093F872E879B
:102D3800F901EA0DFB1D80E28083F601408551858B
:102D4800415051092E853F85421B530BB9016A0D2D
:102D58007B1D9401C1010E9476209C01F1018081B4
:102D6800918190FF06C0F6018281938182179307B3
:0C2D78000CF4C9012F96E2E10C94C72274
:102D8400CF93DF93CDB7DEB72F970FB6F894DEBF9E
:102D94000FBECDBF8F8740E065E080E00E94F21354
:102DA40040E066E080E00E94F2136F8582E00E94BA
:102DB400C91F41E067E080E00E94F21380E090E0E8
:102DC400A0E0B0E489839A83AB83BC8320E030E045
:102DD4004AE753E469817A818B819C810E94D223E2
:102DE400DC01CB018D839E83AF83B88720E030E084
:102DF40040E85FE36D817E818F8198850E94C823BE
:102E040088232CF481E090E09A8789873FC020E0F2
:102E14003FEF4FE757E46D817E818F8198850E9453
:102E2400CD2318164CF520E030E040E251E46981EE
:102E34007A818B819C810E94D223DC01CB01BC016D
:102E4400CD010E941421DC01CB019A8789870FC030
:102E540089E190E09C878B878B859C850197F1F7AE
:102E64009C878B8789859A8501979A878987898525
:102E74009A85892B69F714C06D817E818F8198852D
:102E84000E941421DC01CB019A87898789859A8560
:102E94009E878D878D859E850197F1F79E878D8707
:102EA40040E067E080E00E94F21300002F960FB626
:0E2EB400F894DEBF0FBECDBFDF91CF91089521
:102EC200CF93DF93CDB7DEB72F970FB6F894DEBF5F
:102ED2000FBECDBF8F8741E065E080E00E94F21314
:102EE20040E066E080E00E94F2136F8582E00E947B
:102EF200C91F41E067E080E00E94F21380E090E0A9
:102F0200A0E0B0E489839A83AB83BC8320E030E005
:102F12004AE753E469817A818B819C810E94D223A2
:102F2200DC01CB018D839E83AF83B88720E030E044
:102F320040E85FE36D817E818F8198850E94C8237E
:102F420088232CF481E090E09A8789873FC020E0B3
:102F52003FEF4FE757E46D817E818F8198850E9414
:102F6200CD2318164CF520E030E040E251E46981AF
:102F72007A818B819C810E94D223DC01CB01BC012E
:102F8200CD010E941421DC01CB019A8789870FC0F1
:102F920089E190E09C878B878B859C850197F1F76F
:102FA2009C878B8789859A8501979A8789878985E6
:102FB2009A85892B69F714C06D817E818F819885EE
:102FC2000E941421DC01CB019A87898789859A8521
:102FD2009E878D878D859E850197F1F79E878D87C8
:102FE20040E067E080E00E94F21300002F960FB6E7
:0E2FF200F894DEBF0FBECDBFDF91CF910895E2
:10300000CF93DF93CDB7DEB72F970FB6F894DEBF1F
:103010000FBECDBF8F878F858093850241E066E02C
:1030200083E00E94F21380E090E0AAEFB3E489838A
:103030009A83AB83BC8320E030E04AEF54E469819B
:103040007A818B819C810E94D223DC01CB018D830C
:103050009E83AF83B88720E030E040E85FE36D8176
:103060007E818F8198850E94C82388232CF481E07B
:1030700090E09A8789873FC020E03FEF4FE757E411
:103080006D817E818F8198850E94CD2318164CF525
:1030900020E030E040E251E469817A818B819C81BB
:1030A0000E94D223DC01CB01BC01CD010E9414217E
:1030B000DC01CB019A8789870FC088EC90E09C8760
:1030C0008B878B859C850197F1F79C878B878985FA
:1030D0009A8501979A87898789859A85892B69F7C7
:1030E00014C06D817E818F8198850E941421DC013E
:1030F000CB019A87898789859A859E878D878D855B
:103100009E850197F1F79E878D8740E066E083E01A
:103110000E94F21300002F960FB6F894DEBF0FBE88
:08312000CDBFDF91CF910895AE
:10312800A2E0B0E0EAE9F8E10C94AB223C016B01C3
:10313800FB0122813381A480B580808191819A83AB
:10314800898386809780FA0120803180428053806D
:10315800B201A10157FE07C044275527BA014219F9
:1031680053096409750937FD03C08D7F9A838983E4
:10317800950157FC05C0898182FD02C083FF02C00A
:1031880021503109CE0101967C010AE010E0C60108
:103198000E941C1B57FC03C0298122FF0AC001970B
:1031A800F401E80FF91F57FC02C02BE209C02DE219
:1031B80007C023FF06C00197F401E80FF91F20E2BA
:1031C800208309811A81F6014085518541505109B2
:1031D800481B590BB401680F791F9501C3010E9460
:1031E80076209C01F3018081918190FF06C0F60151
:1031F80082819381821793070CF4C9012296E2E138
:043208000C94C72239
:10320C00CF93DF9300D00F92CDB7DEB78A836B8359
:10321C008AE089838A81843008F05AC08B81883097
:10322C0008F056C08A81882F90E081309105E9F032
:10323C00823091051CF4892B39F04AC082309105FB
:10324C0029F10397A1F144C089E390E0FC0180814E
:10325C00882F90E02B81222F30E002C09595879526
:10326C002A95E2F78170898333C086E390E0FC01F4
:10327C008081882F90E02B81222F30E002C0959521
:10328C0087952A95E2F78170898322C083E390E0C9
:10329C00FC018081882F90E02B81222F30E002C02E
:1032AC00959587952A95E2F78170898311C080E303
:1032BC0090E0FC018081882F90E02B81222F30E060
:1032CC0002C0959587952A95E2F781708983000055
:0E32DC0089810F900F900F90DF91CF91089590
:1032EA00CF93DF9300D000D000D0CDB7DEB781E016
:1032FA000E94811B9A83898389819A819C0140E07B
:10330A0050E088E893E1DC010E947F23DC01CB01D5
:10331A00072E7AE0B695A795979587957A95D1F76E
:10332A00702D8B839C83AD83BE838B819C81AD8101
:10333A00BE818F309140A105B10518F0109261004D
:10334A0022C08B819C81AD81BE818F309140A105C5
:10335A00B10568F48B819C81AD81BE81853B910565
:10336A00A105B10520F081E0809361000CC08B813A
:10337A009C81AD81BE81853B9105A105B10518F4FB
:10338A0082E0809361008B819C81AD81BE81019630
:10339A00A11DB11D2AE030E040E050E0BC01CD01A2
:1033AA000E94EC21DA01C90126960FB6F894DEBF15
:0A33BA000FBECDBFDF91CF91089543
:1033C4000FC00E94AD2338F00E94B42320F095234F
:1033D40011F00C94C2230C94D62311240C94A7232B
:1033E4000E940E2270F3959FC1F3950F50E0551F74
:1033F400629FF001729FBB27F00DB11D639FAA2746
:10340400F00DB11DAA1F649F6627B00DA11D661F94
:10341400829F2227B00DA11D621F739FB00DA11DB5
:10342400621F839FA00D611D221F749F3327A00D6F
:10343400611D231F849F600D211D822F762F6A2F0B
:1034440011249F5750409AF0F1F088234AF0EE0F70
:10345400FF1FBB1F661F771F881F91505040A9F79D
:103464009E3F510580F00C94C2230C94A7235F3F28
:10347400E4F3983ED4F3869577956795B795F795D9
:10348400E7959F5FC1F7FE2B880F911D9695879551
:0434940097F9089507
:10349800CF93DF9300D0CDB7DEB789836A83898164
:1034A800843008F057C08A81813059F58981882F86
:1034B80090E08130910591F0823091051CF4892BC0
:1034C80039F048C08230910579F0039799F042C0ED
:1034D8008AE390E02FEFFC0120833CC087E390E073
:1034E8002FEFFC01208336C084E390E02FEFFC012E
:1034F800208330C081E390E02FEFFC01208300009F
:1035080029C08A81882331F58981882F90E081300C
:10351800910589F0823091051CF4892B39F01AC085
:103528008230910569F0039781F014C08AE390E036
:10353800FC0110820FC087E390E0FC0110820AC0F2
:1035480084E390E0FC01108205C081E390E0FC0177
:103558001082000000000F900F90DF91CF91089526
:10356800CF93DF93DC01F90168387105F1F05CF461
:103578006138710561F164387105A1F16038710530
:1035880009F051C02FC0603C710509F441C0603F8B
:103598007105F1F1603A710509F045C0C081D1812A
:1035A800CE0102969183808325C0C081D181CE014E
:1035B800029691838083452B39F04881042E000CB4
:1035C800550B660B770B1CC0488150E029C0C081A1
:1035D800D181CE01049691838083488159816A8183
:1035E8007B810EC0C081D181CE01029691838083F8
:1035F800452BA1F048815981052E000C660B770BED
:103608004D935D936D937C93139781E090E00DC08B
:10361800C081D181CE0102969183808348815981EE
:1036280060E070E0EDCF80E090E0DF91CF91089509
:10363800A0E0B0E0E2E2FBE10C94AD22DC0128015D
:103648001696AD90BC901797F701808191811296DC
:10365800ED91FC9113971896CD91DC9119972197CC
:10366800F7FF02C0E1E0F0E0CA0DDB1D1882690136
:10367800A1E0B0E08F01021B130B4C01F2E08F2296
:103688009924052C000C66087708CE018A199B0935
:10369800CA15DB0519F1411551056105710589F058
:1036A800CB01BA01A30192010E94EC21CA01A62F05
:1036B800B72F605D6A9341E0C41AD108A901BC0123
:1036C800E4CF98012C0D3D1D121613064CF31C1463
:1036D8001D0434F48114910419F702C080E090E0CD
:1036E800AB2B31F4F701208131812F7E3183208388
:0A36F800CDB7DEB7E0E10C94C92263
:10370200CF93DF93CDB7DEB727970FB6F894DEBF1E
:103712000FBECDBF8F8387E290E027E230E0F90150
:103722002081207EFC01208387E290E027E230E0C6
:10373200F9012081322F2F812770232BFC01208356
:1037420086E290E026E230E0F90120812064FC016B
:103752002083000086E290E0FC01808182958695BC
:1037620086958370882F90E081709927892B91F735
:1037720084E290E0FC018081882F90E09A83898323
:1037820085E290E0FC018081882F90E09C838B830E
:103792008B819C81382F222789819A81822B932BBE
:1037A2009E838D8384E290E0FC0180819181279643
:1037B2000FB6F894DEBF0FBECDBFDF91CF91089553
:1037C200CF93DF93CDB7DEB78FE490E02FE430E004
:1037D200F90120812E7FFC0120838FE490E02FE409
:1037E20030E0F90120812260FC0120838EE490E028
:1037F2002EE430E0F90120812860FC0120838EE470
:1038020090E02EE430E0F90120812061FC01208368
:103812008FE490E02FE430E0F90120812F7BFC015E
:1038220020838FE490E02FE430E0F90120812068CA
:10383200FC01208386E490E02FE13EE4FC01318329
:1038420020838EE490E02EE430E0F90120812E7F87
:10385200FC0120838EE490E02EE430E0F901208127
:103862002260FC0120838EE490E02EE430E0F90136
:1038720020812B7FFC0120830000DF91CF910895EE
:10388200CF93DF93CDB7DEB78FE490E02FE430E043
:10389200F90120812160FC0120838FE490E02FE474
:1038A20030E0F90120812D7FFC0120838EE490E03D
:1038B2002EE430E0F90120812860FC0120838EE4AF
:1038C20090E02EE430E0F90120812F7EFC0120837C
:1038D2008FE490E02FE430E0F90120812062FC01C6
:1038E20020838FE490E02FE430E0F90120812F7EE5
:1038F200FC0120838EE490E02EE430E0F901208187
:103902002B7FFC0120838EE490E02EE430E0F9016D
:1039120020812260FC0120838EE490E02EE430E0DE
:10392200F90120812160FC0120830000DF91CF9109
:023932000895F6
:10393400A2E0B0E0E0EAFCE10C94AF224C016B01A0
:10394400FB012281338164807580808191819A8317
:103954008983A680B78037FD03C08D7F9A838983CE
:10396400FA014081518162817381CE0101967C010B
:1039740008E010E09301C6010E941C1B298124FF6A
:1039840006C00197F501E80FF91F20E32083298180
:1039940023FF06C00197F501E80FF91F20E22083F9
:1039A40009811A81F6014085518541505109481B0E
:1039B400590BB501680F791F9301C4010E94762049
:1039C4009C01F4018081918190FF06C0F6018281FF
:1039D4009381821793070CF4C9012296EEE00C94AC
:0239E400CB22F4
:1039E600CF93DF93CDB7DEB740E063E083E00E947C
:1039F600E51441E063E083E00E94F21385E590E080
:103A060025E530E0F9012081277FFC01208385E54B
:103A160090E025E530E0F90120812460FC01208357
:103A260085E590E025E530E0F90120812D7FFC0158
:103A3600208385E590E025E530E0F90120812160CD
:103A4600FC0120838BE590E02BE530E0F901208135
:103A56002064FC0120838BE590E02BE530E0F90142
:103A660020812068FC0120838FE590E02FE530E07F
:103A7600F90120812068FC0120830000DF91CF91AD
:023A86000895A1
:103A8800CF93DF9300D0CDB7DEB719821A8219829F
:103A98003EC089818C5F40E0682F81E00E94F2136C
:103AA8001A8228C06A8181E00E9406198823F9F4E5
:103AB80000006A8181E00E9406198823D1F3898178
:103AC8008C5F41E0682F81E00E94F2138A81282FE1
:103AD80030E08981882F90E0220F331F220F331F97
:103AE800820F931F8B599D4FFC01808115C08A81DD
:103AF8008F5F8A838A818430A8F289818C5F41E054
:103B0800682F81E00E94F21389818F5F8983898100
:103B1800843008F4BECF8FEF0F900F90DF91CF91D4
:023B28000895FE
:103B2A00CF93DF930F92CDB7DEB783E590E023E51D
:103B3A0030E0F90120812160FC01208383E590E0D7
:103B4A0023E530E0F90120812D7FFC01208383E504
:103B5A0090E023E530E0F90120812460FC01208314
:103B6A0019821CC082E590E024E6FC012083000053
:103B7A0088E590E0FC018081882F90E08170992788
:103B8A00892BB1F388E590E028E530E0F90120813E
:103B9A002160FC01208389818F5F89838981823337
:103BAA0008F383E590E023E530E0F9012081287FDE
:0E3BBA00FC01208300000F90DF91CF91089551
:103BC800CF93DF9300D000D0CDB7DEB780E00E945E
:103BD800811B9A83898389819A819C0140E050E006
:103BE80088E893E1DC010E947F23DC01CB01072EEA
:103BF8007AE0B695A795979587957A95D1F7702D20
:103C08009C838B838B819C818D3A9D4020F082E040
:103C18008093600019C08B819C818D3A9D4048F447
:103C28008B819C818D3D954020F081E080936000E0
:103C38000BC08B819C818D3D954030F48B819C819C
:103C4800892B11F01092600000000F900F900F90D8
:083C58000F90DF91CF91089558
:103C60000F931F93CF93DF93DB01109719F48FEF1E
:103C70009FEF3DC02D913C91119730FF25C01696C6
:103C80004D915C91179714962D913C911597421781
:103C9000530778F41296ED91FC9113978083129656
:103CA0002D913C9113972F5F3F4F13963C932E938A
:103CB000129716962D913C9117972F5F3F4F1796AD
:103CC0003C932E93169713C01C96ED91FC911D9773
:103CD000309769F2EB01092F182F0995892B39F6D6
:103CE0008E819F8101969F838E83812F902FDF91FC
:083CF000CF911F910F9108957F
:103CF800CF93DF93CDB7DEB787E290E027E230E0DD
:103D0800F90120812F77FC01208387E290E027E2E8
:103D180030E0F90120812064FC01208387E290E0F3
:103D280027E230E0F90120812F7DFC01208386E223
:103D380090E026E230E0F90120812460FC01208334
:103D480086E290E026E230E0F90120812260FC0161
:103D5800208386E290E026E230E0F90120812E7F80
:103D6800FC01208386E290E026E230E0F901208120
:0E3D78002068FC0120830000DF91CF910895A8
:103D8600A2E0B0E0E9ECFEE10C94AF225C016B012D
:103D9600FB012281338184809580808191819A8381
:103DA60089836680778037FD03C08D7F9A838983F8
:103DB600FA014081518162817381CE0101967C01B5
:103DC6000AE010E09401C6010E941C1B09811A81B9
:103DD600F6014085518541505109481B590BB301E5
:103DE600680F791F9401C5010E9476209C01F50198
:103DF6008081918190FF06C0F601828193818217AE
:0E3E060093070CF4C9012296EEE00C94CB2237
:103E1400CF93DF93CDB7DEB740E060E081E00E944E
:103E2400E51440E061E081E00E94E51440E062E0D6
:103E340081E00E94E51440E063E081E00E94E51423
:103E440041E064E081E00E94E51441E065E081E046
:103E54000E94E51441E066E081E00E94E51441E03F
:103E640067E081E00E94E51441E060E081E00E94A7
:103E7400F21341E061E081E00E94F21341E062E06C
:103E840081E00E94F21341E063E081E00E94F213BA
:083E94000000DF91CF910895B9
:103E9C00CF93DF9300D00F92CDB7DEB7198283E3B7
:103EAC0090E09B838A8389E290E02A81FC01208345
:103EBC0080E490E02A813B81232F3327FC0120836F
:103ECC008AE290E02AE230E0F90120812061FC01D5
:103EDC0020838AE290E02AE230E0F9012081286018
:103EEC00FC0120838981806889838981846089832E
:103EFC0089818260898380E490E02981FC012083A0
:0E3F0C0000000F900F900F90DF91CF9108955D
:103F1A001F920F920FB60F9211242F933F934F9334
:103F2A005F936F937F938F939F93AF93BF93EF9317
:103F3A00FF93CF93DF93CDB7DEB7809185028130AF
:103F4A0031F441E064E080E00E94F21309C08091FC
:103F5A008502882329F440E064E080E00E94F2139D
:103F6A000000DF91CF91FF91EF91BF91AF919F91A7
:103F7A008F917F916F915F914F913F912F910F9008
:083F8A000FBE0F901F90189567
:103F9200CF93DF9300D0CDB7DEB789836A8389815F
:103FA200843050F58981882F90E08130910591F01D
:103FB200823091051CF4892B39F01EC082309105A4
:103FC20079F0039799F018C08BE390E02A81FC0105
:103FD200208312C088E390E02A81FC0120830CC078
:103FE20085E390E02A81FC01208306C082E390E011
:103FF2002A81FC012083000000000F900F90DF91C6
:04400200CF910895BD
:10400600A0E1B0E0E9E0F0E20C94B722FB01BA01CE
:10401600AE014F5F5F4F7A0140E1D7011D924A958D
:10402600E9F742E051E05A8349839C838B83F7FF8B
:1040360009C08FE490E090936300809362008FEF55
:104046009FEF14C0A9018C013197FE83ED83C70150
:104056000E9414234F8158852D813E8142175307B4
:1040660008F49A01F801E20FF31F10826096E6E069
:044076000C94D322B1
:10407A00CF93DF93CDB7DEB763970FB6F894DEBF61
:10408A000FBECDBF688B798B8A8B9B8B8B898F9365
:10409A008A898F9389898F9388898F9382E892E09E
:1040AA00892F8F9382E892E08F93CE0101969F9396
:1040BA008F930E943F238DB79EB708960FB6F89448
:1040CA00DEBF0FBECDBFCE0101960E947121000056
:1040DA0063960FB6F894DEBF0FBECDBFDF91CF91C6
:0240EA00089537
:1040EC00A0E0B0E0ECE7F0E20C94B1226C015B01D3
:1040FC007A01E901480181E08822992400FD03C07E
:10410C004217530750F0A701B501C6010E948E2239
:10411C00EC16FD0610F0C70117C08E010E191F0911
:10412C000115110541F0B60180E290E00E94301EAD
:10413C0001501109F5CF8114910429F4A701B5019F
:10414C00C6010E948E22CE01CDB7DEB7ECE00C94F6
:02415C00CD2272
:10415E00A2E8B0E0E5EBF0E20C94B1225C014A017A
:10416E007A836983C12CD12CE981FA8180818823DD
:10417E00E9F07401860120E830E0AE014D5F5F4F3B
:10418E00BE016F5F7F4FC5010E94FC0F8C0D9D1D00
:10419E008C159D054CF48FE490E090936300809312
:1041AE0062008FEF9FEF03C06C01DECFC601CE57CA
:0841BE00DF4FECE00C94CD2270
:1041C6000F931F93CF93DF930F92CDB7DEB78983FB
:1041D6008981853B10F084EB89830AE410E08981AC
:1041E600282F30E040E050E088EE93E0DC010E94AA
:1041F6007F23DC01CB0124EB30E040E050E0BC0142
:10420600CD010E94EC21DA01C90188519C4FF801C9
:104216009183808300000F90DF91CF911F910F91C2
:024226000895F9
:104228000E94162288F09F5798F0B92F9927B75106
:10423800B0F0E1F0660F771F881F991F1AF0BA9542
:10424800C9F714C0B13091F00E94A623B1E00895D7
:104258000C94A623672F782F8827B85F39F0B93FC9
:10426800CCF3869577956795B395D9F73EF49095F5
:0E4278008095709561957F4F8F4F9F4F0895F1
:10428600DC01ED91FC91119780818A3221F080E06A
:1042960090E03AE00EC03196ED93FC93DB01ED9190
:1042A600FC911197CF0102968D939C938081918109
:1042B6000895ED91FC911197208120532A3068F4DE
:1042C600389FA001399F500D1124CA01820F911DFC
:0C42D60031961196FC93EE93ECCF089506
:1042E2000F931F93CF93DF9300D00F92CDB7DEB71A
:1042F2009B838A8319820EC08981882F90E02A814C
:104302003B81820F931FFC0180810E94611789818A
:104312008F5F89838981082F10E08A819B810E94A7
:1043220071230817190740F300000F900F900F90A8
:0A433200DF91CF911F910F910895C4
:10433C00A0E0B0E0E4EAF1E20C94B3227C01FB01D2
:10434C00EA01C901A280B380C480D58000811181AB
:10435C00209711F4C5E7D2E0009719F4CE010E9422
:10436C007123B7FC04C0A816B90608F4C501960160
:10437C00AC01BE01C7010E947620CDB7DEB7EAE0E2
:04438C000C94CF229C
:10439000990F0008550FAA0BE0E8FEEF1616170656
:1043A000E807F907C0F012161306E407F50798F0BE
:1043B000621B730B840B950B39F40A2661F0232BD7
:1043C000242B252B21F408950A2609F4A140A69553
:0843D0008FEF811D811D08958E
:1043D800A1E21A2EAA1BBB1BFD010DC0AA1FBB1F01
:1043E800EE1FFF1FA217B307E407F50720F0A21B73
:1043F800B30BE40BF50B661F771F881F991F1A94E0
:1044080069F760957095809590959B01AC01BD0109
:04441800CF01089533
:10441C0057FD9058440F551F59F05F3F71F0479569
:10442C00880F97FB991F61F09F3F79F0879508954E
:10443C00121613061406551FF2CF4695F1DF08C06D
:10444C00161617061806991FF1CF8695710561058A
:04445C000894089523
:10446000CF93DF9300D00F92CDB7DEB78A836B83F3
:1044700019828B81882319F48A81898306C08B81F4
:10448000813019F48A81805C8983898180580E94F7
:10449000C21600000F900F900F90DF91CF910895FA
:1044A000CF93DF93EC0190E0E92FF0E0EE0FFF1FD8
:1044B000E15BFD4F8081811102C081810EC0A88126
:1044C000B9812C91821305C091811196B983A8837B
:1044D00001C09F5F9B3040F3892FDF91CF910895FA
:1044E000CF93DF930F92CDB7DEB7898300008BE2C5
:1044F00090E0FC018081829586958770882F90E0FE
:1045000081709927892B99F38CE290E02981FC0135
:0C451000208300000F90DF91CF910895F0
:10451C00A0E0B0E0E4E9F2E20C94B5226C01EB010E
:10452C008A017B01E40EF51ECE15DF0541F0899161
:10453C00B601082E000C990B0E94301EF5CFC80155
:0A454C00CDB7DEB7E8E00C94D122F1
:104556002F923F924F925F926F927F928F929F928D
:10456600AF92BF92CF92DF92EF92FF920F931F937B
:10457600CF93DF93CDB7DEB7CA1BDB0B0FB6F8942C
:08458600DEBF0FBECDBF09949A
:10458E002A88398848885F846E847D848C849B84D5
:10459E00AA84B984C884DF80EE80FD800C811B81E3
:1045AE00AA81B981CE0FD11D0FB6F894DEBF0FBE12
:0645BE00CDBFED010895E0
:1045C400CF93DF93CDB7DEB783E590E023E530E00A
:1045D400F9012081277FFC01208383E590E023E516
:1045E40030E0F90120812F7BFC0120830000DF9162
:0445F400CF910895C6
:1045F800CF93DF93CDB7DEB78AE390E0FC0110825A
:1046080087E390E0FC01108284E390E0FC011082D3
:1046180081E390E0FC0110820000DF91CF910895C2
:10462800A2E0B0E0EAE1F3E20C94B9228C015A83EB
:104638004983AE014F5F5F4F0E94AF20F801208190
:1046480024FF02C08FEF9FEF2296E4E00C94D5225E
:10465800CF93DF930F92CDB7DEB7898388E490E0DC
:104668002981222F30E0FC013183208300000F9044
:06467800DF91CF910895CF
:10467E00A0E0B0E0E5E4F3E20C94BB22AE01475FAC
:10468E005F4F6F8178858D819E810E94BB23E2E012
:04469E000C94D7227F
:1046A200092E0394000C11F4882352F0BB0F40F43E
:1046B200BF2B11F460FF04C06F5F7F4F8F4F9F4F7E
:0246C200089559
:1046C400A29FB001B39FC001A39F700D811D11244F
:0E46D400911DB29F700D811D1124911D08953E
:1046E200FC01AF014F5F5F4F2081222311F0FA01DD
:0C46F200F8CF9F01281B390BC901089567
:1046FE000E946223A59F900DB49F900DA49F800DE4
:06470E00911D1124089525
:10471400EC010E94DE230E94DD23CE010E94DF23F0
:06472400CE010E94DB2320
:10472A009C01215631092A31310510F48F759927D8
:02473A000895E0
:10473C009C01215431092A31310508F48062089515
:0E474C00E894BB2766277727CB0197F90895DD
:0E475A0000240A94161617061806090608957C
:0E47680000240A94121613061406050608957E
:0E4776009A01AB016FEF7FE70E9403200895C8
:0C47840097F99F6780E870E060E00895FE
:0A4790000E94C82108F481E008959A
:0A479A000E94C82108F48FEF089573
:0847A4000E94E2190C9451235C
:0647AC009FEF80EC089570
:0447B2000C94000063
:0447B6000E945B0002
:0247BA00089560
:0247BC0008955E
:0247BE0008955C
:1047C00020454E5445522050494E3A200020204367
:1047D0004F52524543542050494E20202020002063
:1047E000202057454C434F4D452020202000205489
:1047F0003A00432044723A00554E4C434B004C4F14
:10480000434B20004C3A004F4E004F464600204696
:104810003A004F4E2000303A4D656E750020313A17
:10482000446F6F72202020323A4C45440020333AC6
:1048300046616E20202020343A4175746F2000209C
:10484000313A4C4F434B3120323A4C4F434B3200BC
:1048500020333A4261636B0020444F4F5220312095
:104860004C4F434B454421200020444F4F522031B0
:1048700020554E4C4F434B45440020444F4F52204F
:1048800032204C4F434B454421200020444F4F528F
:10489000203220554E4C4F434B45440020313A497D
:1048A0006E204C454400323A4F75744C45442037D5
:1048B0003A4261636B002020494E204C49474854DE
:1048C000204F46462020002020494E204C49474892
:1048D00054204F4E2020200020204F5554204C497A
:1048E000474854204F4646200020204F5554204C26
:1048F00049474854204F4E20200020202020464188
:104900004E204F46462020202020002020202046F8
:10491000414E204F4E202020202020002053454E85
:10492000534F5253204143544956452000202020E4
:104930002057524F4E472050494E20202020002023
:104940002020202020202020202020202000205354
:10495000595354454D204C4F434B45442120002092
:10496000574149542030303A30002053454320000D
:1049700020574149542030303A002046494E414C9E
:10498000205741524E494E47212000202020202010
:10499000414C455254202020002043414C4C494E6C
:0B49A00047203931312E2E2E20200040
:1049AB0068076C094C836A9074A07AC00080688891
:0649BB0000846C82008103
:1049C1003738392F3435362A3132332D63303D2B88
:0749D100286E756C6C2900D3
:0649D800286E696C290045
:0349DE002564004D
:00000001FF
